:020000040800F2
:1000000000500020517F0008FD970008019800086B
:1000100005980008099800080D98000800000000E5
:10002000000000000000000000000000119800081F
:10003000159800080000000019980008A17F00082A
:10004000A17F0008A17F0008A17F0008A17F000810
:10005000A17F0008A17F0008A17F0008A17F000800
:10006000A17F0008A17F0008A17F0008A17F0008F0
:10007000A17F0008A17F0008A17F0008A17F0008E0
:10008000A17F0008A17F0008A17F0008A17F0008D0
:10009000A17F0008A17F0008A17F00080D92000841
:1000A000A17F0008A17F0008A17F0008A17F0008B0
:1000B000A18000080D830008A17F0008A17F00082F
:1000C000A17F0008A17F0008A17F0008A17F000890
:1000D000A17F0008A17F00080D730008A17F000820
:1000E000A1310008A17F0008A17F000800000000E6
:1000F0000000000000000000000000000000000000
:0C01000000000000000000005FF808F1A3
:1001100010B5054C237833B9044B13B10448AFF341
:1001200000800123237010BD140100200000000096
:10013000D8A9000808B5034B1BB103490348AFF326
:10014000008008BD0000000018010020D8A90008A8
:1001500081F0004102E000BF83F0004330B54FEA78
:1001600041044FEA430594EA050F08BF90EA020FE5
:100170001FBF54EA000C55EA020C7FEA645C7FEA78
:10018000655C00F0E2804FEA5454D4EB5555B8BF9B
:100190006D420CDD2C4480EA020281EA030382EA0C
:1001A000000083EA010180EA020281EA0303362D9E
:1001B00088BF30BD11F0004F4FEA01314FF4801C71
:1001C0004CEA113102D0404261EB410113F0004F83
:1001D0004FEA03334CEA133302D0524263EB43033A
:1001E00094EA050F00F0A780A4F10104D5F1200ED8
:1001F0000DDB02FA0EFC22FA05F2801841F1000133
:1002000003FA0EF2801843FA05F359410EE0A5F106
:1002100020050EF1200E012A03FA0EFC28BF4CF037
:10022000020C43FA05F3C01851EBE37101F00045ED
:1002300007D54FF0000EDCF1000C7EEB00006EEBFA
:100240000101B1F5801F1BD3B1F5001F0CD3490884
:100250005FEA30004FEA3C0C04F101044FEA4452DB
:1002600012F5800F80F09A80BCF1004F08BF5FEA62
:10027000500C50F1000041EB045141EA050130BD42
:100280005FEA4C0C404141EB010111F4801FA4F1E5
:100290000104E9D191F0000F04BF01460020B1FA3A
:1002A00081F308BF2033A3F10B03B3F120020CDA72
:1002B0000C3208DD02F1140CC2F10C0201FA0CF050
:1002C00021FA02F10CE002F11402D8BFC2F1200CB5
:1002D00001FA02F120FA0CFCDCBF41EA0C0190406B
:1002E000E41AA2BF01EB0451294330BD6FEA0404B4
:1002F0001F3C1CDA0C340EDC04F11404C4F120029F
:1003000020FA04F001FA02F340EA030021FA04F3B0
:1003100045EA030130BDC4F10C04C4F1200220FA07
:1003200002F001FA04F340EA0300294630BD21FA45
:1003300004F0294630BD94F0000F83F4801306BF0B
:1003400081F480110134013D4EE77FEA645C18BFFF
:100350007FEA655C29D094EA050F08BF90EA020F96
:1003600005D054EA000C04BF1946104630BD91EA8E
:10037000030F1EBF0021002030BD5FEA545C05D191
:100380004000494128BF41F0004130BD14F58004D0
:100390003CBF01F5801130BD01F0004545F0FE4144
:1003A00041F470014FF0000030BD7FEA645C1ABF79
:1003B000194610467FEA655C1CBF0B46024650EAB0
:1003C000013406BF52EA033591EA030F41F40021DC
:1003D00030BD00BF90F0000F04BF0021704730B562
:1003E0004FF4806404F132044FF000054FF0000137
:1003F00050E700BF90F0000F04BF0021704730B5F8
:100400004FF4806404F1320410F0004548BF4042CC
:100410004FF000013EE700BF42004FEAE2014FEA21
:1004200031014FEA02701FBF12F07F4393F07F4FFC
:1004300081F06051704792F0000F14BF93F07F4F2E
:10044000704730B54FF4607401F0004521F0004171
:1004500020E700BF50EA010208BF704730B54FF0F7
:1004600000050AE050EA010208BF704730B511F0FC
:10047000004502D5404261EB41014FF4806404F134
:1004800032045FEA915C3FF4DCAE4FF003025FEAB6
:10049000DC0C18BF03325FEADC0C18BF033202EB3E
:1004A000DC02C2F1200300FA03FC20FA02F001FA98
:1004B00003FE40EA0E0021FA02F11444C1E600BF37
:1004C00070B54FF0FF0C4CF4E06C1CEA11541DBFEA
:1004D0001CEA135594EA0C0F95EA0C0F00F0DEF8B5
:1004E0002C4481EA030621EA4C5123EA4C5350EA9A
:1004F000013518BF52EA033541F4801143F48013EB
:1005000038D0A0FB02CE4FF00005E1FB02E506F07B
:100510000042E0FB03E54FF00006E1FB03569CF0D0
:10052000000F18BF4EF0010EA4F1FF04B6F5007FD6
:1005300064F5407404D25FEA4E0E6D4146EB060648
:1005400042EAC62141EA55514FEAC52040EA5E50D1
:100550004FEACE2EB4F1FD0C88BFBCF5E06F1ED87B
:10056000BEF1004F08BF5FEA500E50F1000041EBB2
:10057000045170BD06F0004646EA010140EA02005F
:1005800081EA0301B4EB5C04C2BFD4EB0C0541EA81
:10059000045170BD41F480114FF0000E013C00F396
:1005A000AB8014F1360FDEBF002001F0004170BDBA
:1005B000C4F10004203C35DA0C341BDC04F11404D3
:1005C000C4F1200500FA05F320FA04F001FA05F25F
:1005D00040EA020001F0004221F0004110EBD3702C
:1005E00021FA04F642EB06015EEA430E08BF20EA58
:1005F000D37070BDC4F10C04C4F1200500FA04F3FB
:1006000020FA05F001FA04F240EA020001F000418C
:1006100010EBD37041F100015EEA430E08BF20EAFF
:10062000D37070BDC4F1200500FA05F24EEA020E47
:1006300020FA04F301FA05F243EA020321FA04F076
:1006400001F0004121FA04F220EA020000EBD3702D
:100650005EEA430E08BF20EAD37070BD94F0000F2D
:100660000FD101F00046400041EB010111F4801F61
:1006700008BF013CF7D041EA060195F0000F18BF12
:10068000704703F00046520043EB030313F4801F4E
:1006900008BF013DF7D043EA0603704794EA0C0F08
:1006A0000CEA135518BF95EA0C0F0CD050EA41061E
:1006B00018BF52EA4306D1D181EA030101F000419B
:1006C0004FF0000070BD50EA410606BF10461946C3
:1006D00052EA430619D094EA0C0F02D150EA0136CF
:1006E00013D195EA0C0F05D152EA03361CBF104610
:1006F00019460AD181EA030101F0004141F0FE41AF
:1007000041F470014FF0000070BD41F0FE4141F432
:10071000780170BD70B54FF0FF0C4CF4E06C1CEA32
:1007200011541DBF1CEA135594EA0C0F95EA0C0FE7
:1007300000F0A7F8A4EB050481EA030E52EA0335A2
:100740004FEA013100F088804FEA03334FF08055C3
:1007500045EA131343EA12634FEA022245EA1115F0
:1007600045EA10654FEA00260EF000419D4208BFA1
:10077000964244F1FD0404F5407402D25B084FEA4E
:100780003202B61A65EB03055B084FEA32024FF4FA
:1007900080104FF4002CB6EB020E75EB030E22BF57
:1007A000B61A754640EA0C005B084FEA3202B6EB17
:1007B000020E75EB030E22BFB61A754640EA5C00C6
:1007C0005B084FEA3202B6EB020E75EB030E22BF56
:1007D000B61A754640EA9C005B084FEA3202B6EB57
:1007E000020E75EB030E22BFB61A754640EADC0016
:1007F00055EA060E18D04FEA051545EA16754FEA78
:1008000006164FEAC30343EA52734FEAC2025FEA95
:100810001C1CC0D111F4801F0BD141EA00014FF024
:1008200000004FF0004CB6E711F4801F04BF0143F5
:100830000020B4F1FD0C88BFBCF5E06F3FF6AFAE11
:10084000B5EB030C04BFB6EB020C5FEA500C50F1A1
:10085000000041EB045170BD0EF0004E4EEA113124
:1008600014EB5C04C2BFD4EB0C0541EA045170BD2B
:1008700041F480114FF0000E013C90E645EA060E6F
:100880008DE60CEA135594EA0C0F08BF95EA0C0F9D
:100890003FF43BAF94EA0C0F0AD150EA01347FF4E5
:1008A00034AF95EA0C0F7FF425AF104619462CE7BC
:1008B00095EA0C0F06D152EA03353FF4FDAE10461F
:1008C000194622E750EA410618BF52EA43067FF470
:1008D000C5AE50EA41047FF40DAF52EA43057FF400
:1008E000EBAE12E74FF0FF3C06E000BF4FF0010C0B
:1008F00002E000BF4FF0010C4DF804CD4FEA410C6F
:100900007FEA6C5C4FEA430C18BF7FEA6C5C1BD03B
:1009100001B050EA410C0CBF52EA430C91EA030FBC
:1009200002BF90EA020F0020704710F1000F91EA19
:10093000030F58BF994208BF90422CBFD8176FEAE7
:10094000E37040F0010070474FEA410C7FEA6C5CB5
:1009500002D150EA013C07D14FEA430C7FEA6C5CBC
:10096000D6D152EA033CD3D05DF8040B704700BFE8
:100970008446104662468C461946634600E000BF36
:1009800001B5FFF7B7FF002848BF10F1000F01BD08
:100990004DF808EDFFF7F4FF0CBF012000205DF8D3
:1009A00008FB00BF4DF808EDFFF7EAFF34BF012058
:1009B00000205DF808FB00BF4DF808EDFFF7E0FFF1
:1009C00094BF012000205DF808FB00BF4DF808ED42
:1009D000FFF7CEFF94BF012000205DF808FB00BFA9
:1009E0004DF808EDFFF7C4FF34BF012000205DF88B
:1009F00008FB00BF4FEA4102B2F1E04324BFB3F568
:100A0000001CDCF1FE5C0DD901F0004C4FEAC00285
:100A10004CEA5070B2F1004F40EB830008BF20F069
:100A20000100704711F0804F21D113F13872BCBF23
:100A300001F00040704741F480114FEA5252C2F178
:100A40001802C2F1200C10FA0CF320FA02F018BFC1
:100A500040F001004FEAC1234FEAD32303FA0CFC14
:100A600040EA0C0023FA02F34FEA4303CCE77FEAA3
:100A7000625307D150EA01331EBF4FF0FE4040F4ED
:100A80004000704701F0004040F0FE4040F400009C
:100A9000704700BF80F0004002E000BF81F00041DD
:100AA00042001FBF5FEA410392EA030F7FEA226C14
:100AB0007FEA236C6AD04FEA1262D2EB1363C1BFA4
:100AC000D218414048404140B8BF5B42192B88BF13
:100AD000704710F0004F40F4000020F07F4018BF36
:100AE000404211F0004F41F4000121F07F4118BF56
:100AF000494292EA030F3FD0A2F1010241FA03FCFE
:100B000010EB0C00C3F1200301FA03F100F00043E5
:100B100002D5494260EB4000B0F5000F13D3B0F1AD
:100B2000807F06D340084FEA310102F10102FE2A1C
:100B300051D2B1F1004F40EBC25008BF20F001008C
:100B400040EA03007047490040EB000010F4000F3A
:100B5000A2F10102EDD1B0FA80FCACF1080CB2EBCD
:100B60000C0200FA0CF0AABF00EBC250524218432C
:100B7000BCBFD0401843704792F0000F81F40001D1
:100B800006BF80F400000132013BB5E74FEA4103A4
:100B90007FEA226C18BF7FEA236C21D092EA030F10
:100BA00004D092F0000F08BF0846704790EA010F8A
:100BB0001CBF0020704712F07F4F04D1400028BFB7
:100BC00040F00040704712F100723CBF00F5000099
:100BD000704700F0004343F0FE4040F400007047CF
:100BE0007FEA226216BF08467FEA2363014642027B
:100BF00006BF5FEA412390EA010F40F4800070478E
:100C00004FF0000304E000BF10F0004348BF404233
:100C10005FEA000C08BF704743F0964301464FF06F
:100C200000001CE050EA010208BF70474FF00003CB
:100C30000AE000BF50EA010208BF704711F000430C
:100C400002D5404261EB41015FEA010C02BF8446DC
:100C50000146002043F0B64308BFA3F18053A3F53B
:100C60000003BCFA8CF2083AA3EBC25310DB01FA82
:100C700002FC634400FA02FCC2F12002BCF1004F06
:100C800020FA02F243EB020008BF20F00100704797
:100C900002F1200201FA02FCC2F1200250EA4C00EB
:100CA00021FA02F243EB020008BF20EADC70704731
:100CB0004FF0FF0C1CEAD0521EBF1CEAD15392EA3F
:100CC0000C0F93EA0C0F6FD01A4480EA010C40021B
:100CD00018BF5FEA41211ED04FF0006343EA501075
:100CE00043EA5111A0FB01310CF00040B1F5000FB7
:100CF0003EBF490041EAD3715B0040EA010062F166
:100D00007F02FD2A1DD8B3F1004F40EBC25008BF4F
:100D100020F00100704790F0000F0CF0004C08BF6D
:100D200049024CEA502040EA51207F3AC2BFD2F13A
:100D3000FF0340EAC250704740F400004FF0000348
:100D4000013A5DDC12F1190FDCBF00F00040704782
:100D5000C2F10002410021FA02F1C2F1200200FAC0
:100D600002FC5FEA310040F1000053EA4C0308BF87
:100D700020EADC70704792F0000F00F0004C02BFD8
:100D8000400010F4000F013AF9D040EA0C0093F053
:100D9000000F01F0004C02BF490011F4000F013BAD
:100DA000F9D041EA0C018FE70CEAD15392EA0C0F1B
:100DB00018BF93EA0C0F0AD030F0004C18BF31F086
:100DC000004CD8D180EA010000F00040704790F05C
:100DD000000F17BF90F0004F084691F0000F91F000
:100DE000004F14D092EA0C0F01D142020FD193EAC6
:100DF0000C0F03D14B0218BF084608D180EA01004E
:100E000000F0004040F0FE4040F40000704740F029
:100E1000FE4040F4400070474FF0FF0C1CEAD052F7
:100E20001EBF1CEAD15392EA0C0F93EA0C0F69D053
:100E3000A2EB030280EA010C49024FEA402037D0BE
:100E40004FF0805343EA111143EA10130CF00040B5
:100E50008B4238BF5B0042F17D024FF4000C8B42A5
:100E600024BF5B1A40EA0C00B3EB510F24BFA3EB85
:100E7000510340EA5C00B3EB910F24BFA3EB910355
:100E800040EA9C00B3EBD10F24BFA3EBD10340EAAF
:100E9000DC001B0118BF5FEA1C1CE0D1FD2A3FF6F5
:100EA00050AF8B4240EBC25008BF20F001007047AA
:100EB0000CF0004C4CEA50207F32C2BFD2F1FF034D
:100EC00040EAC250704740F400004FF00003013A7E
:100ED00037E792F0000F00F0004C02BF400010F422
:100EE000000F013AF9D040EA0C0093F0000F01F036
:100EF000004C02BF490011F4000F013BF9D041EA58
:100F00000C0195E70CEAD15392EA0C0F08D142028A
:100F10007FF47DAF93EA0C0F7FF470AF084676E75D
:100F200093EA0C0F04D14B023FF44CAF08466EE736
:100F300030F0004C18BF31F0004CCAD130F0004204
:100F40007FF45CAF31F000437FF43CAF5FE700BF5C
:100F50004FF0FF3C06E000BF4FF0010C02E000BF85
:100F60004FF0010C4DF804CD4FEA40024FEA410327
:100F70007FEA226C18BF7FEA236C11D001B052EADD
:100F8000530C18BF90EA010F58BFB2EB030088BFA3
:100F9000C81738BF6FEAE17018BF40F00100704712
:100FA0007FEA226C02D15FEA402C05D17FEA236CF4
:100FB000E4D15FEA412CE1D05DF8040B704700BF3B
:100FC000844608466146FFE70FB5FFF7C9FF0028D2
:100FD00048BF10F1000F0FBD4DF808EDFFF7F4FF0B
:100FE0000CBF012000205DF808FB00BF4DF808EDA4
:100FF000FFF7EAFF34BF012000205DF808FB00BFC7
:101000004DF808EDFFF7E0FF94BF012000205DF8E8
:1010100008FB00BF4DF808EDFFF7D2FF94BF012099
:1010200000205DF808FB00BF4DF808EDFFF7C8FF92
:1010300034BF012000205DF808FB00BF4FEA4002EA
:101040004FEA41037FEA226C02D15FEA402C08D1CB
:101050007FEA236C02D15FEA412C02D14FF00000FD
:1010600070474FF0010070474FEA4002B2F1FE4F67
:101070000FD34FF09E03B3EB12620DD94FEA00235A
:1010800043F0004310F0004F23FA02F018BF404233
:1010900070474FF00000704712F1610F01D142021A
:1010A00005D110F0004008BF6FF0004070474FF0CE
:1010B0000000704742000ED2B2F1FE4F0BD34FF04A
:1010C0009E03B3EB126209D44FEA002343F00043BE
:1010D00023FA02F070474FF00000704712F1610FE1
:1010E00001D1420202D14FF0FF3070474FF00000B3
:1010F000704700BF40F0BF60024B40F40030D86042
:10110000704700BF00ED00E0C3785BB901210378B0
:1011100014485A0903F01F03203201FA03F340F880
:1011200022307047104B0F21DA6870B4D24301248B
:1011300085784378C2F30222C2F1040621FA02F252
:101140002A40B34001781343064A1B0101F01F05F2
:101150005018DBB2AC4080F80033490942F8214016
:1011600070BC704700E100E000ED00E0837933B32C
:1011700030B404681B4BE1431D6802790D401D60CB
:101180005D6802F180422940596002F5823215689B
:1011900041792C43146002689C68D04304409C60F1
:1011A000DC68102900EA0400D86013D030BC01F1DB
:1011B000804303F5823319680A431A607047037944
:1011C000016803F1804303F582331A6822EA0102C1
:1011D0001A607047996830BC11439960D9680A4316
:1011E000DA60704700040140054B1A685B690340F0
:1011F00004D0024214BF01200020704718467047F7
:1012000000040140014B5861704700BF00040140D9
:10121000024B0349034A59605A607047002002405C
:1012200023016745AB89EFCD3849CB6813F0010F37
:10123000CB6803D15B0738D502207047DB072CD47D
:101240004FF43023314AD168490705D50220013BCC
:10125000002B08BF05207047D268D2061AD4012B94
:1012600021D02A4A136943F00203136150611369C4
:1012700043F040031361D36813F0010FD36819D111
:101280005B073BD5022041F6FD71204A13690B40F4
:10129000136170470320013BDAE71D4BCA68D20790
:1012A000D0D5013BFAD105207047CB68D906D8D5F7
:1012B00003207047D90709D4D3685B07E2D4D36809
:1012C00013F0100F14BF03200420DCE7104BD1688B
:1012D000C90708D4D168013B490708D50220002B73
:1012E00008BF0520CFE7013BF1D10520CBE7D2684D
:1012F00012F0100F14BF03200420F0E7D36813F09E
:10130000100F0CBF04200320BDE700BF00200240E7
:10131000FFFF0A0010B4394CE36813F0010FE368D3
:1013200004D15B0738D5022010BC7047DB0729D4F5
:101330004FF40053314AD468640705D50220013BBD
:10134000002B08BF0520EFE7D268D20617D4012B87
:101350001FD02A4A136943F0010313610180D36847
:1013600013F0010FD3681CD15B073FD5022041F673
:10137000FE71224A10BC13690B40136170470320B1
:10138000013BDDE741F6FF73E268D207D2D5013BAE
:10139000FAD1052010BC7047E368DC06D9D50320DC
:1013A000C2E7D90709D4D3685B07DFD4D36813F049
:1013B000100F14BF03200420D9E741F6FF73D16852
:1013C000CC0708D4D168013B490708D50220002B7F
:1013D00008BF0520CBE7013BF1D10520C7E7D26864
:1013E00012F0100F14BF03200420F0E7D36813F0AD
:1013F000100F0CBF04200320B9E700BF00200240FB
:1014000030B4CD78EB0648BF8B7805F00F0448BFA9
:101410001C430B8813F0FF0F32D0482D026800F0F8
:101420008180282D00F0B680D90744BF22F00F023A
:101430002243990744BF22F0F00242EA04125907FE
:1014400044BF22F4706242EA0422190744BF22F426
:10145000704242EA0432D90644BF22F4702242EAC2
:101460000442990644BF22F4700242EA045259062B
:1014700044BF22F0706242EA0462190671D402602D
:10148000FF2B30D9282D42682FD0482D6CD0D9059C
:1014900044BF22F00F0222439D0544BF22F0F00218
:1014A00042EA0412590544BF22F4706242EA04225F
:1014B0001D0544BF22F4704242EA0432D90444BFFD
:1014C00022F4702242EA04429D0444BF22F47002D6
:1014D00042EA0452590444BF22F0706242EA0462B4
:1014E0001D043BD4426030BC7047D90500F1D68062
:1014F0009D0500F1CB80590500F1C0801D0500F16C
:10150000B580D90400F1AA809D0400F19F805904A0
:1015100000F194801B04E5D54FF4004364F31F727F
:101520004361DFE7D90700F1E380990700F1D98033
:10153000590700F1CF80190700F1C580D90600F1E5
:10154000BB80990600F1B180590600F1D7801906D9
:1015500095D5802164F31F72016190E764F31F72D7
:10156000C0E764F31F728AE7D90548D49D053ED4CD
:10157000590534D41D052AD4D9044FD49D0445D42B
:10158000590453D41D04ADD54FF4004364F31F72C6
:101590000361A7E7D90700F1E280990700F1D8803D
:1015A000590700F1CE80190700F1C480D90600F177
:1015B000BA80990600F1B080590600F1A68019069C
:1015C0007FF55DAF802164F31F72416157E74FF4EF
:1015D000006122F4704242EA04320161CCE74FF428
:1015E000806122F4706242EA04220161C2E74FF492
:1015F000007122F0F00242EA04120161B8E74FF4F0
:10160000807122F00F0222430161AFE74FF40051D5
:1016100022F4700242EA04520161B1E74FF48051B2
:1016200022F4702242EA04420161A7E74FF48041AC
:1016300022F0706242EA04620161A3E74FF4804144
:1016400022F0706242EA0462416163E74FF40051A4
:1016500022F4700242EA0452416158E74FF480518B
:1016600022F4702242EA044241614DE74FF40061E6
:1016700022F4704242EA0432416142E74FF4806151
:1016800022F4706242EA0422416137E74FF40071AC
:1016900022F0F00242EA041241612CE74FF480711B
:1016A00022F00F022243416122E7202122F470023E
:1016B00042EA0452016147E7102122F4702242EA13
:1016C000044201613DE7082122F4704242EA0432FB
:1016D000016133E7042122F4706242EA04220161CD
:1016E00029E7022122F0F00242EA041201611FE719
:1016F000012122F00F022243016116E7402122F06E
:10170000706242EA0462016121E7402122F07062C6
:1017100042EA0462416152E7202122F4700242EA67
:101720000452416148E7102122F4702242EA044247
:1017300041613EE7082122F4704242EA04324161ED
:1017400034E7042122F4706242EA042241612AE76C
:10175000022122F0F00242EA0412416120E7012155
:1017600022F00F022243416117E700BF806880B278
:10177000704700BFC06880B2704700BF016170470A
:10178000416170470AB9416170470161704700BF0C
:101790000028194B00F44012B4BFDB695B68B2F556
:1017A000401F30B484B21ED0C20213D50322C0F34E
:1017B0000345AA4023EA020343F0706319B1420DC6
:1017C0001201944023430C4A0028B4BFD3615360F4
:1017D00030BC7047420D120104FA02F223EA020300
:1017E00043F07063EAE7044D23F070636A6822F007
:1017F00070626A60E2E700BF0000014010B40F248D
:1018000001F0FC0303F1804303F5803301F0030191
:101810009A6889008C4022EA04029A609A6800FA69
:1018200001F11143996010BC704700BF214A30B4E8
:10183000536803F00C03042B06D0082B25D01BB1F2
:101840001D4A1346026001E01B4B0360194A1B4C02
:1018500051681B4DC1F30311615CCB40436051687B
:10186000C1F30221615C23FA01F181605168C1F387
:10187000C221615CCB40C3605268C2F38132AA5C72
:1018800030BCB3FBF2F30361704753685168C3F394
:101890008343C90303F1020307D55268920304D4BA
:1018A000054A02FB03F30360D0E7064A02FB03F399
:1018B0000360CBE70010024000127A000400002011
:1018C0000000002000093D00044A936919B923EA89
:1018D000000090617047184390617047001002400B
:1018E000044AD36919B923EA0000D061704718434C
:1018F000D061704700100240274A038890429BB293
:1019000012D002F5006290420ED0B0F1804F0BD0A1
:10191000A2F59832904207D002F58062904203D03F
:1019200002F58062904203D14A8823F0700313438A
:101930001A4A904227D002F58062904223D070B4B8
:1019400023F44073CE888D880C889BB202F58C32CC
:10195000334390420380858504850ED0104B984216
:101960000BD003F54063984207D003F5806398429B
:1019700003D003F58063984201D10B7A03860123DB
:1019800070BC8382704703808B8883850B880385B6
:1019900001238382704700BF002C014000100040EB
:1019A00000340140028CF0B422F010021204120C38
:1019B0000C890284038C8588028B4E8823F02003D7
:1019C00022F4E64234431B0412040F88154E1B0C0C
:1019D000120C43EA041342EA0722B0429BB2ACB2B3
:1019E00092B209D0104DA84206D0C98884800283E3
:1019F000F0BC0187038470474FF6BF754F8923F011
:101A0000800343EA07138E89CF891D408B8824F415
:101A100040643E4345EA031344EA86049BB2A4B201
:101A2000E3E700BF002C01400034014000234FF6E3
:101A3000FF72036042600372704700BF038829B9D8
:101A400023F001031B041B0C038070479BB243F07F
:101A500001030380704700BFB0F8443021B9C3F3DD
:101A60000E03A0F8443070476FEA43436FEA5343D4
:101A70009BB2A0F84430704783899BB21AB923EA1D
:101A8000010181817047194381817047038B23F4E1
:101A900000631B041B0C43EA012189B201837047D8
:101AA000C94389B20182704770B50D460446038A66
:101AB000CA889BB223F440531343898903828289E5
:101AC000AE8822F4B05323F00C031B0428891B0CAE
:101AD0006A893343034313439BB2A381A38A86B02D
:101AE0009BB223F440730B4301A8A382FFF79EFE31
:101AF00004991A48039BA289844208BF0B4612F43A
:101B0000004F2A6803EB830314BF5200920003EBDB
:101B10008303B3FBF2F36422114DA189A5FB03609B
:101B2000400902FB10330A044FEA00100AD41B01DB
:101B30003233A5FB0323C3F3431303439BB2238137
:101B400006B070BDD9003231A5FB0131C1F342129C
:101B500042EA00039BB2238106B070BD0038014009
:101B60001F85EB51838929B923F400531B041B0CF7
:101B7000838170479BB243F400538381704700BF59
:101B8000012310B401F01F04C1F34211012903FA2B
:101B900004F30FD002290CBF103014302AB90268A8
:101BA00010BC22EA030303607047026810BC1343B1
:101BB000036070470C30F1E7C1F308018180704782
:101BC0002DE9F04101244FF00308102782B0144D95
:101BD00002AE21460420FFF777FE26F8044D314679
:101BE00028468DF806808DF80770FFF709FC21461E
:101BF0000420FFF769FE314628468DF806808DF8EF
:101C00000770ADF80440FFF7FBFB21462846FFF7BD
:101C1000B7FD21462846FFF7B3FD02B0BDE8F081CD
:101C20000008014010B50748FFF7A4FD00F00104CB
:101C30000448FFF79FFDC30748BF44F00204204655
:101C400010BD00BF0008014010B5054C0121204621
:101C5000FFF796FD2046BDE810400121FFF790BD3B
:101C60000008014038B50F4D6B783BB9044630B1E0
:101C700042060DD4230610D400232B7338BD012156
:101C80000948FFF77DFD01210748FFF779FDF3E7DC
:101C900001210548FFF772FDECE701210248FFF73B
:101CA0006DFDE9E7FC0E00200008014038B5124C3C
:101CB0002378022B04D0054604F0BCF8637803B106
:101CC00038BD35B16A060DD42B0610D4002323731A
:101CD00038BD01210948FFF753FD01210748FFF7EF
:101CE0004FFDF3E701210548FFF748FDECE701212F
:101CF0000248FFF743FDE9E7FC0E00200008014021
:101D00000B4B0C4910B45C1C091B03F58060CA5CCA
:101D100003F8012F9842FAD123780A2B06D04FF40A
:101D20008062FF21044810BC07F0ABBD10BC7047B7
:101D3000730A002001FC0108740A0020014B185CA2
:101D4000704700BF740A0020014B1954704700BF50
:101D5000740A00202DE9F0410646002A40D00023F5
:101D6000214F441E3C448D18002B4FEAD31318BF5B
:101D7000012311F8010B0344A942DBB204F8010F5F
:101D8000F2D116441948BB55FFF74EFA042801D08A
:101D9000BDE8F0814FF6FF77154D144CDFF8548005
:101DA000AE1E35F8041CB94202D02046FFF7B2FA45
:101DB0003188A01CB94204F1040409D0FFF7AAFA43
:101DC000444505F1040506F10406EAD1BDE8F081B9
:101DD000444505F1040506F10406E2D1BDE8F081B1
:101DE0001346014FCEE700BF740A002000FC010833
:101DF000780A002000000208F0B4CAB100230E4F98
:101E00004D1E3D448618002B4FEAD31318BF012303
:101E100015F8014F00F8014B2344B042DBB2F2D178
:101E20001144785CF0BCC01AB0FA80F040097047E9
:101E30001346014FF5E700BF740A002008B50021E2
:101E40004422074807F01DFD0649002005F02CFC40
:101E500000B108BD0720BDE8084004F0E1BA00BFAA
:101E6000740E00209C0E00200149024807F0AABB16
:101E7000200F0020900E00202DE9F04F0646DFF8DD
:101E80009482402200219DB0404607F0FAFC9E4B10
:101E900003CB1C889A78C8F80100C8F80510A8F888
:101EA000094088F80B203378242B00F01C81102384
:101EB00000220C9304230A920B930027B55C8DF843
:101EC00053203C46099707970897DFF84C92002D5E
:101ED00000F0E780A5F14103192B00F29382531C17
:101EE0000DF1530115AA30468DF8533001F0DCFF97
:101EF000002800F08C82DDF854B05846FFF7DAF87D
:101F00005FFA80FA5046FEF77FFE01465846FEF71C
:101F1000C5FD4946FEF7CCFE07F070FD472D82B2A5
:101F200028D04D2D40F08B80002A40F0B682BAF1C7
:101F30001E0F00F208810123744A03FA0AF31342C8
:101F400040F0988013F4607F40F0BD8013F0380FAC
:101F500000F0F980BAF1040F00F07582BAF1050FB4
:101F600000F06A82BAF1030F00F0F4814FF480525E
:101F70000C238AE0BAF15E0F00F2E580DFE81AF088
:101F8000CE00CE00CE00CE004C01E300E300E30023
:101F9000E300E3003801E300E300E300E300E300D3
:101FA000E30015011501150132013201E300E300E0
:101FB000E300E300E300E3003801E3003801E3005D
:101FC000E300E300E300E300E300E300CE00E3000E
:101FD000EF00E300E3001B01E300E300E300E300A4
:101FE000E3001B01E300E300E3004C012C012C01A2
:101FF0002C012C012C012C01E300FD00E300E30087
:10200000E300E300E300E300E300E300E300E300B8
:10201000E300E300E300E300E300E300E300E300A8
:102020000101E300E300E300E300E300E300E30079
:10203000E300E3000601060138010F010F01463DF0
:10204000142D00F28080DFE815F029017E007E006B
:1020500017012001F70039017E003E017E00460194
:102060007E004B01500156017E007E007E00630120
:102070006D010501BAF1000F6AD0BAF1010F3FD02E
:102080004FF400620B2388F808A044FA03F3D90741
:1020900000F1FD8114439DF85320B55C002D7FF4C1
:1020A00019AF079B23B1089B002B08BF022308939D
:1020B000BA0640F16181164BD8F820209A4240F3CD
:1020C0005B811B2340E0BAF1080F00F03581BAF1C3
:1020D000090F00F0A181BAF1070F00F034814FF42D
:1020E00000520D23D1E7012388F801300A93112310
:1020F00000220C93052388F802200B930322DCE6D0
:102100004FF400620B23C0E7740E0020070000406C
:1021100080969800B80E00200000C842089B002B53
:1021200040F0C982BAF1260F88F801A040F0B181D1
:10213000A2F114039BB21E2B05D8C64921FA03F362
:10214000DD0700F10E81142318461DB0BDE8F08FA5
:1021500003234FF4006288F808300B2395E707212A
:10216000002A40F09A8144FA01F3D80700F18F81E8
:1021700001238B401C43A4B28DE7002AE3D10A213E
:10218000F1E75023012188F80130E9E7002A40F007
:102190007581AAF15A0A88F804A00321E3E7CAF17D
:1021A0005E0A88F802A00521DAE7AAF1110A88F888
:1021B00005A00221D4E7089B002B40F07C82BAF1F5
:1021C000310F00F073810A2ABDD1012388F806304F
:1021D000032308210893C6E7AAF1360A88F807A066
:1021E0000921BDE7CAF1150A88F803A00621B7E75F
:1021F000002A40F03981089B002B40F05C82BAF144
:102200001C0F88F800A000F04E81BAF11E0F00F0FC
:102210004A810123089309E0BAF11C0F88F800A055
:1022200000F00181BAF11E0F00F0FD80BAF15C0FE1
:1022300000F0F980002193E7099B082543F004038F
:1022400009930323C8F818B047FA03F3DB070ED449
:102250002F4320E7079BC8F83CB043F004030793E3
:102260000C2347FA03F3DB074FF48055F0D519230D
:1022700018461DB0BDE8F08F099BC8F810B043F0B8
:102280000103099302250123DEE7099BC8F814B076
:1022900043F00203099304250223D5E70125002317
:1022A000C8F80CB047FA03F3DA07E0D45846002127
:1022B000FEF79CFE0028CBD0042345E788F81CA03D
:1022C00010250423C0E75846FEF7CEFE2025C8F8A7
:1022D00020000523E6E7C8F824B040250623E1E7FF
:1022E000C8F828B080250723AEE7C8F82CB04FF413
:1022F00080750823D6E758495846FEF795FE002812
:1023000040F0DF8188F830A04FF400750923C9E759
:10231000079BC8F834B043F0010307934FF480657E
:102320000A2391E7079BC8F838B043F002030793EC
:102330004FF400650B2387E740234FF4005288F8E1
:1023400009300D23A1E680234FF4005288F80930AC
:102350000D239AE610234FF4805288F80A300C239C
:1023600093E63E4B0121A3FB0223DB08763B88F872
:10237000013002230893F6E60A9B002B40F08F8081
:1023800098F80230012B00F00181354B5B7833B9AE
:10239000FD0700F1AC80324B1B69C8F80C30F80522
:1023A00003D42F4BDB68C8F82C3098F80090B9F1B3
:1023B000040F00F0BB8098F80530002B00F0AD80D2
:1023C000012B40F0A18000250226119305231095D2
:1023D0000F960E9398F80330012B00F0AC80089B09
:1023E000032B00F0C880DFF87CA016AB9AE807004A
:1023F00083E80700A2056DD598F8070006285DD987
:102400001D23A1E6012318461DB0BDE8F08F02236D
:1024100018461DB0BDE8F08F00234FF4005288F835
:1024200009300D2331E612B10A2A7FF48CAE5044F4
:1024300088F80000002196E600234FF4805288F8C7
:102440000A300C2321E620234FF4805288F80A300A
:102450000C231AE60104104000007F43CDCCCCCC05
:10246000740E00209C0E0020BAF11C0F88F800A00A
:10247000DAD0BAF11E0F7FF4D9AED5E70A2A7FF47D
:1024800062AEBAF15A0F3FF45EAE04216BE615233B
:102490005AE602230121089362E6172354E6FB075C
:1024A00025D4162350E601230893C0E79DF8203079
:1024B000082188F806300323089354E6AC4B9B7937
:1024C000834207D016A905F0EFF8002800F0F1804C
:1024D00098F80090B9F10A0F00F0C180B9F15C0FD3
:1024E00064D1079B002B40F00C811A232CE698F84E
:1024F0000330012B7FF453AFD8F80C009D49FEF751
:10250000D7FBC8F80C004AE70623022501260E93E4
:10251000002310950F9611935CE71E460F9303233B
:1025200001250E9302231095119353E7790600F1CC
:10253000C4801C2308E6079BDA0707D5D8F83400C7
:102540008C49FEF7B5FB079BC8F83400980707D500
:10255000D8F838008749FEF7ABFB079BC8F838006E
:1025600059077FF53CAFD8F83C008249FEF7A0FB45
:10257000C8F83C0033E798F80630012B7FF433AFFE
:10258000079B042B3FF42FAF2523DDE5089B022B8F
:102590007FF405AF98F80130502B3FF400AF002BCB
:1025A0003FF4FDAEFE077FF57CAFF8E6089B032BFA
:1025B0002ED0079B63B398F80430002B00F0E08026
:1025C000B9F1350F079B00F08180DB0740F17F8177
:1025D000674BD8F83410D869FEF762FAC8F83400AF
:1025E000079B980740F16E81614BD8F83810186A44
:1025F000FEF756FAC8F83800079B590740F1F480F7
:102600005B4BD8F83C10586AFEF74AFAC8F83C0011
:10261000B9F11E0F00F0ED80B9F1350F6AD0B9F1B4
:102620001C0F00F0598198F80190B9F1500F00F09B
:102630002B8100230D93089B022B00F000810A9A46
:10264000002A40D027F02107BFB2089B13B127F41E
:10265000E057BFB2002F00F04781242374E5079BA9
:10266000002B3FF442AF17F0500F3FF462AFD8F8A1
:102670002400FEF71FFDC0B206283FF6C1AE98F851
:102680001C30142B05D0022B7FF45DAD3B063FF5CB
:102690005AAD27F05007BFB2002800F09D840138E2
:1026A000C3B20D9334490D9804F0FEFF002840F0AA
:1026B0002684072348E5182346E527F04007BFB2E4
:1026C00079E6262340E52D4B1F40BEE7DA0704D408
:1026D000274BDB69C8F83430079B980704D4244B98
:1026E0001B6AC8F83830079B590703D4204B5B6A34
:1026F000C8F83C3098F80190B9F1010F99D91E2320
:1027000022E5D90700F18F80194B5B6BC8F8343094
:10271000079B9A077BD4164B9B6BC8F83830079BF6
:10272000C3F38003C3B1124B1899586AFEF7B6F988
:10273000D8F83C10FEF7B2F90D4B196CFEF7AEF964
:10274000002398F801900D93C8F83C00B9F1500FA0
:102750007FF471AF1F23F7E4054A0D93D26BC8F8DD
:102760003C2098F80190B9F1500F7FF464AFF1E785
:10277000740E00203333CB41C80E0020DEFCFFFF77
:10278000B9F1350F079BA1D0DA0740F1BD80D8F829
:1027900034101698FEF784F95E4B596BFEF780F9FA
:1027A000C8F83400079B9B0740F1A980D8F838107F
:1027B0001798FEF775F9574B996BFEF771F9C8F842
:1027C0003800079B58070FD51899D8F83C00FEF73A
:1027D00067F9504BD96BFEF763F94E4B196CFEF756
:1027E0005FF9C8F83C0013E74A4B5B6AC8F83C3015
:1027F0000EE74949072004F057FF00283FF459AF7E
:10280000079B002B47D10A9A0D93089318E7414B79
:102810001799186AFEF742F9D8F83810FEF73EF912
:10282000C8F838007BE73B4B1699D869FEF736F9B4
:10283000D8F83410FEF732F9C8F8340068E7B9F177
:10284000000F19D00021D8F80C00FEF7C5FB0028B6
:102850007FF427AEB9F18C0F00F0658200F2598247
:10286000B9F1020F00F02682B9F1030F00F02482C3
:10287000B9F1010F7FF4E3AE079B0A9A002B089B86
:1028800008BF00230893DBE6079B002B7FF462AFB1
:102890000A9A0D93D4E6D90704D41E4BDB69C8F815
:1028A0001030079B9A0704D41A4B1B6AC8F81430DF
:1028B000079B5B0703D4174B5B6AC8F818300023EB
:1028C0000D934EE7134B1B6AC8F8383094E6114B52
:1028D000DB69C8F8343083E60F49062004F0E4FED3
:1028E00000283FF4E6AE8BE719971A971B97AAB119
:1028F00024F04904002C00F03E83102324E4054B0F
:102900001B6AC8F838305CE7024BDB69C8F8343022
:1029100048E700BF740E0020C80E0020B24B93F8A9
:1029200048309C0714D598F80130013B022B04D99C
:102930000A9B43F04003DBB20A93079B1BB1089B41
:10294000022B00F0AF81A94B5B7A102B00F0328391
:102950000A9B03F04004A549D8F8202098F80230DB
:102960008A614B7013B108238DF86C30D8F80C30A5
:102970009E4AD8F82C50D068294613611993FEF767
:102980002BFB002800F0A6800A9B980600F1A2808D
:10299000964B587A04B91A9598F80A3098F830206E
:1029A000924983420A7507D018461A9905F04AFAE7
:1029B00098F80A308D4A53728C4A9DF86C30527ADE
:1029C00098F809001343894A8DF86C30127A8242D4
:1029D00009D0FFF76BF998F80930844A13B1127ADD
:1029E0001343824A1372814A9DF86C30117A98F829
:1029F00000200B43042A8DF86C3000F0468198F8D3
:102A000003307A4998F805208B70089B0A71032BD4
:102A100000F02581754A98F8073092799A4207D0DC
:102A200016AA724C07CA8AE80700A37106F0C0FD17
:102A300098F8003098F804206C49262BCA7000F0F2
:102A400095807BD95C2B71D0662B65D0282B5ED00E
:102A500098F80130654A502B137003D0089A022A67
:102A600000F0898098F80830604AD371002B3FF459
:102A70006BAB03F0DFF95D4BDB79032B3DD001211C
:102A80000024642259485A4B0170197804710229B4
:102A9000C47044708471447204721A725A729A72C9
:102AA00010D000F12801204604F0FEFD00283FF47C
:102AB00000AE06F07DFD2046002105F03DF92046E0
:102AC000FFF7D0F8082003F0D9FC0023474AD37160
:102AD000FFF73ABB454B587A60B10A9B190609D4F7
:102AE000002C00F0D780002105F0ACF93F4BD8F85E
:102AF0002C50587A3D4BDD604CE73D4B1B78022B48
:102B0000E3D0082006F0B0FD02F0A2FFDDE739496E
:102B1000072004F0EFFC9BE70023374AA2F13401C1
:102B20004B635360936006F043FD91E7324B334AA9
:102B300007CA83E8070006F03BFD89E71C2B34D069
:102B40001E2B32D00A2B83D10D9D2D4C28462146B9
:102B500004F0D0FC254B9B79AB427FF479AF94E82D
:102B600007008AE8070006F023FD71E721490620E7
:102B700004F0C0FC6CE7012B6AD0002B5BD0023B59
:102B8000012B41D99DF86C301C4D43F004030A9A87
:102B900019A928468DF86C3001F0C4F8E0B9154C3D
:102BA00095E8070084E807005CE79DF86C3043F087
:102BB00001038DF86C30089B1BB119A90F4800F078
:102BC0004BFE0F4D0B4C284619A900F045FE95E829
:102BD000070084E807003BE701287FF443AF094979
:102BE000044806F0EFFC3DE7B0100020740E002012
:102BF000FC0E0020900E0020A80E0020EC0E0020FD
:102C0000C80E0020200F00200A9B974DC3F38003BD
:102C10000493119B954C0393109BD8F82860029362
:102C20000F9B19A901932246A5F12403284600967B
:102C300000F046FEB4E79DF86C308B4D43F0010385
:102C400019A928468DF86C30884C00F005FEA7E7DE
:102C5000854D19A9284600F0FFFD844CA0E798F89F
:102C600006304B7113B90023C8F83C30D8F83C400B
:102C70007F4B2146186CFEF7AFF900287FF4CAAEEF
:102C80007B4B1C6406F094FCC4E6D8F8240001F0E9
:102C900019F8B4E6294605F0D5F8754BD8F82C504C
:102CA000587A27E70A9B63F07F03DBB20A9303F0AD
:102CB000400450E60B9B0A93079B002B3FF415AC96
:102CC0000E9A134202D12023FFF73EBA684B08EB5D
:102CD000860203EB8603D969506BFDF7DFFE644B78
:102CE00008EB850203EB85030B90D969506BFDF768
:102CF000D5FE17F0800381465FD027F080070C22B5
:102D000059495A48BFB206F0ADFD28BB2123FFF751
:102D10001BBAB9F18E0F06D003D3B9F18F0F7FF430
:102D20008EAC0C9B0A9309F17203DBB2012B04D821
:102D30000A9B43F00803DBB20A93079B002B3FF486
:102D4000D4AB0C224849494806F08CFD0028DDD060
:102D50000A9B03F0010273E498F80330012B06D1BB
:102D6000D8F828004349FDF7A3FFC8F82800D8F891
:102D700028100846FDF79CFF4FF08141FDF798FFB2
:102D800009900B980146FDF793FF099B01461846F1
:102D9000FDF784FE494609904846FDF789FF099BE7
:102DA00001461846FDF77AFE00210990FEF71EF94C
:102DB000099B48B12223FFF7C7B9099A0E990A4225
:102DC0005AD12323FFF7C0B9184606F07BFE4946C7
:102DD00009900B9801F038F9099B014603F1004373
:102DE0001846FEF719F8034698F801200021032A37
:102DF000D8F8282008BF00F1004310460C93099230
:102E0000FEF7F4F8099A0C9B28B102F1004203F195
:102E10000043C8F82820184649460993FDF748FFA3
:102E2000DDF82CB001465846FDF738FE4FF07C51D6
:102E3000FDF73EFF0236099B08EB8606B060594657
:102E40001846FDF735FF4946FDF72AFE4FF07C5145
:102E5000FDF72EFF02350A9B08EB850503F0010202
:102E6000A860FFF7EDBB00BFEC0E0020900E002025
:102E7000740E00203333CB4198F8032027F00E075F
:102E8000012ABFB200F0AD80023508EB8505A968C4
:102E90004846FDF703FE8146023608EB8606B16818
:102EA0000B98FDF7FBFD494601F0CEF8A968814675
:102EB000B06801F0C9F8064648463146C8F82860AF
:102EC000FDF7ECFD20F0004528465549FEF7ACF82B
:102ED00000283FF43DAF4FF07C512846FEF7A4F8A0
:102EE00000287FF413AF4F493046FDF7E1FE01465D
:102EF0002846FEF799F800287FF408AF28E700235A
:102F000098F81C2012951392474A25469B46144672
:102F1000DFF82491079B43FA0BF3D80706D5139BE0
:102F2000142B0FD0D9F82430C9F800300BF1010B65
:102F3000BBF1030F09F1040904F10404EAD12C46A2
:102F4000129D0EE4A1692068FDF7A8FDD9F82410B0
:102F5000FDF7A4FDBBF1020FC9F80000E6D1334B29
:102F60002C46196CFDF79AFD129D98F80190C8F84F
:102F70001800FFF7EBBB98F80030352B02D0002B80
:102F80007FF4BBAC294A294B117A5B7AD2680B4398
:102F900019A827498DF86C301A9200F051F80346B1
:102FA00000287FF4D1A8234A1F4C07CA84E80700F1
:102FB000FFF7CAB81D4B0A9A1B78013B022B134638
:102FC00029D812F040043FF4C6AC43F02003DBB232
:102FD0000A9303F04004BEE498F807300D93FFF71E
:102FE00061BB154A0C95934625461C46099B234117
:102FF00013F0010F04F1010406D0DBF800000F49C3
:10300000FDF756FECBF80000032C0BF1040BEDD1BD
:103010002C460C9D38E712F040047FF49CACD4E7BA
:103020000AD7A33B6F12833A900E0020740E002043
:10303000B80E0020EC0E0020C80E00203333CB4128
:1030400070B50546037AC86843F00403124A286045
:103050002B7292F8483001F134049B0606D52046C5
:1030600006F0CCFA10B10F24204670BD0B4E20465E
:10307000294600F0F1FB347814B10024204670BDDD
:1030800001F0BCF90028F8D02023337005F002FBD2
:1030900004F088FF204670BDB0100020FC0E002018
:1030A00030B5012185B005204FF4C054FEF70CFC6B
:1030B0004823032204A91D4D21F8104D1C488DF80A
:1030C00003308DF80220FEF79BF995F848301B0776
:1030D00006D44FF48072174BC3F8842005B030BD7E
:1030E000642000F0A1FF0B210020FEF787FB0C21DC
:1030F0000020FEF783FB95F84830002213F0400FC4
:1031000014BF08210C21012302A88DF80D108DF8A1
:103110000C208DF80E300294FEF728F8064B04A818
:1031200040F80C3DFDF7F0FF05B030BDB0100020B9
:103130000008014000E100E0280202014FF4807223
:10314000014BC3F88420704700E100E010B511483E
:10315000FEF70CFB104B93F848305B065CBF80F425
:10316000C05080B2A0B10D4A13885488184219BFCC
:103170000321012300230221204218BF0B4691881E
:1031800043F00402084214BF1046184600F0FF0046
:1031900010BD00BF00080140B010002068AC00085E
:1031A00010B54FF40060FEF71FF8002840D14FF42F
:1031B0008050FEF719F8002835D14FF480711F4A6E
:1031C0001F4BC2F884111B78012B02D01D4B1B78BA
:1031D00003B110BD1C48FEF7C9FA1C4B93F84830E8
:1031E0005B065CBF80F4C05080B20028F1D0184A62
:1031F00013885488184219BF032101230023022198
:10320000204218BF0B46918843F00402084218BFC1
:10321000134613F0FF0FDCD000F016FEBDE810409F
:10322000012006F035BA4FF48050FDF7EBFFC4E7FC
:103230004FF40060FDF7E6FFB9E700BF00E100E0F2
:10324000FC0E00202C0F002000080140B0100020D0
:1032500068AC00082DE9F04FDFF8DC828FB098F8F9
:10326000013013B10FB0BDE8F08F04460621AB4A20
:1032700005901068928814F001040A930893069050
:10328000ADF81C2009938DF8281040F0A8804FF06D
:10329000000AA34F059BC3F34003049353B1A14914
:1032A000B86AFDF705FD054601465046FDF7B2FE3A
:1032B00000B9AA46059BC3F38003039353B1994910
:1032C000F86AFDF7F5FC054601465046FDF7A2FEFB
:1032D00000B9AA46E3B202933B6D01250093042393
:1032E000914EDFF858B2DFF8589201938F490BA83E
:1032F00006F068F9029B002B00F024810021B7F84A
:103300004A208A4BD007196040F12781002D40F0F8
:103310002781CDF82CA002220120BDF81840049B83
:1033200083B10020B7F84A10804B8907586040F1FC
:103330000D81002D40F00D81CDF830A01046BDF874
:103340001A100C43039B8BB10021B7F84A20774B2E
:1033500001305207C0B2996040F10681002D40F063
:103360000681CDF834A0BDF81C301C43FDF748FCA5
:1033700006F0A8FBA8F8064001460098FDF798FC67
:1033800008A908900BA801F025F9042388F8043057
:1033900005F080F904F006FE002D4AD105F07AF917
:1033A000337813F0340F7ED114F4607FF4D104F03D
:1033B000F9FFB7F8540000F037FE85F00104EDB9CD
:1033C0005B49B86DFDF774FC019B82465A1EFB6C8D
:1033D000009312F0FF0301931AD0254686E7504F61
:1033E0005049786AFDF764FC00218246FDF712FE21
:1033F00000287FF44FAF4FF0000A4BE7019BD7F84E
:1034000058A05A1E3B6D009312F0FF030193E4D1C4
:10341000786A396800F10040FDF74AFC06F0EEFAE0
:103420000023424A88F8043082E809000FB0BDE862
:10343000F08F5846FEF79AF997F848305B065CBF64
:1034400080F4C05080B230B3B9F80030B9F802202F
:10345000184214BF012300231042B9F8042018BFFA
:1034600043F002031042BDF8182018BF43F00403D4
:10347000144202D0D80748BF9443BDF81A20144222
:1034800002D0990748BF9443BDF81C20144202D0D3
:103490009B0818BF9443A8F8064005F0FBF8337862
:1034A00013F0340F80D03478E4B2E00663D4A10680
:1034B0000AD475B1630762D41E4B1B78002B62D10E
:1034C000042006F0DBF872E7072006F0E1F8002D93
:1034D000F0D15846FEF74AF997F848305A065CBFD3
:1034E00080F4C05080B20028E6D0B9F80030B9F8B6
:1034F0000220184214BF012300231042B9F804200F
:1035000018BF43F002031042059A18BF43F00403AA
:103510001A42D1D0082006F0BBF8CDE770AC000805
:10352000B01000200000C0BF110F0020200F0020AD
:103530000000A0402C0F0020FC0E002000080140DD
:1035400068AC00081C4618460122E8E6002D7FF40E
:10355000F3AE0AF100410C91F0E6002D7FF4D9AEF4
:103560000AF100420B92D6E6002D7FF4FAAE0AF182
:1035700000430D93F7E6062006F08AF897E7092046
:1035800006F086F898E700F05FFC02F061FA69E661
:1035900010B506F033F8C8B101230D4C2078E37064
:1035A000082808D000F050FC022006F071F8BDE8B1
:1035B000104002F04DBA06F057F802E02378002BD5
:1035C000F0D002F045FA6378002BF7D010BD00BFB1
:1035D000FC0E00202DE9F047824686B04FF4407083
:1035E000FDF788FD00260125262301A88DF804306B
:1035F0008DF805608DF80750FDF786FD294644F2E9
:103600000500FEF761F94FF018094FF400734FF011
:103610000308294C694620460427ADF800308DF890
:1036200003908DF80280FDF7EBFE4FF4806369464E
:103630002046ADF800308DF80370FDF7E1FE294615
:103640004FF40030FEF74CF9694620468DF80390A0
:10365000ADF800708DF80280FDF7D2FE08236946B0
:103660002046ADF800308DF80370FDF7C9FE0C233D
:10367000A4F54444ADF80C60ADF80E60ADF81060F0
:10368000ADF81460ADF81230A38920469BB243F028
:103690000C03CDF808A002A9A381FEF705FA2A467B
:1036A000204640F22551FEF76BFA29462046FEF7E8
:1036B00059FA06B0BDE8F087000801402DE9F04F47
:1036C000012183B04020FEF763F801211020FEF7AE
:1036D000FBF84FF400530225102602AC24F8043DF9
:1036E00021463B488DF806508DF80760FDF788FEAF
:1036F0004FF4E130FFF76EFF01210420FEF7E4F8FC
:103700000323214633488DF806308DF80760ADF865
:103710000450FDF775FE2F482946FEF72FF8FDF7F8
:1037200077FDFEF7EDFA2C494FF064080A682B4D3F
:1037300022F004020A6003F0C3FD04F029F904F04A
:10374000D3FE05F009FD00210C46254A254892F8D4
:103750004820254EDFF89CB0DFF89CA0DFF89C9055
:10376000224FC2F30012016041608160204BAC60C7
:103770002C606C60EC602C6134607460B4602A7002
:103780008BF8004085F808808AF8004085F80980A9
:1037900089F8004085F80A801C703C7003F08EFEAA
:1037A000FEF74CFB04F092F9FEF70AFAFFF778FCFB
:1037B00001F0B4FB00F0DCFD04F0F4FD01F036F99B
:1037C000FEF752FB02F0B8FE02F070FD2A78CDE75A
:1037D000001001400008014010E000E0FC0E002055
:1037E000B0100020200F0020140F0020100F002028
:1037F000F80E0020120F0020110F00202C0F0020C7
:1038000042F22831094B30B4002501241A4601FB4D
:1038100000F058609D601C60136803F00113012BD9
:10382000FAD0002330BC13609360704710E000E0D2
:1038300010B5074C4FF4005122780648FDF7A2FF5F
:10384000237813F1FF3318BF0123237010BD00BF8D
:103850001400002000100140F8B5174D0E4695F8F1
:10386000483007469906154C04D52378202B0AD0FA
:10387000FFF78EFE2378022B05D1F8BD00F0EAFD9C
:1038800038B101F0B9FB02F0E3F86378002BF5D012
:10389000F3E73846314600F09DFE0028EDD195F85B
:1038A00048309A07E9D5337ADB06E6D571681020EF
:1038B000BDE8F84004F0C6BAB0100020FC0E0020AD
:1038C0002DE9F04F1F4691B09DF86C40834653F8A8
:1038D0002450A300D6180F900B91284652F82410BC
:1038E0000296FE1807920C96FDF7DAF89DF87060C4
:1038F000079A57F82680B3001F4452F826108246D4
:103900001A440390404604920D97FDF7C9F85146BA
:10391000814605905BF82400FDF7C0F8494604464F
:103920005BF82600FDF7BAF805F10045064621468A
:103930002846FDF7BDF908F10048074631464046E4
:10394000FDF7B6F901463846FDF7AAF8314681463B
:103950002846FDF7ADF9214606464046FDF7A8F991
:1039600001463046FDF79AF8494606F0A9F89DF859
:10397000787006461A9C9DF87490002F00F0D08055
:10398000FCF74AFDA8A3D3E9002382468B46FDF746
:103990001DF8002840F0E980DFF8B0B22146DBF8DE
:1039A0003C702046FDF77CF83946FDF777F839463C
:1039B000FDF77EF906F086F84FF07C510746204669
:1039C000FDF776F93146FDF773F9394620F00040EE
:1039D000FDF722FA05F0D2FFFDF76CFB83B20193ED
:1039E000002B00F06B810B9B01981C7A220700F1E1
:1039F000AE80FDF709F9074639464FF07E50FDF7D6
:103A00000BFA044601463046FDF752F9079B0F9A20
:103A100053F8291007460E9052F82900FDF73EF89A
:103A20002146FDF745F9394606903846FDF740F93D
:103A3000014604464FF08040FDF730F880490646C5
:103A40003846FDF735F9214607467E48FDF726F84A
:103A500001463846FDF72CF9079B08904FF07C5142
:103A6000304603EB8907FDF723F9019B0990012BF1
:103A700000F0248101264FF00009734CB9F10B0FBF
:103A800000F2E68029460898FDF712F94146824681
:103A90000998FDF70DF901465046FDF701F8294652
:103AA00082460998FDF704F9414605460898FDF756
:103AB000FFF801462846FCF7F1FFD046054609F11C
:103AC00001095FFA89F903992846FCF7E9FF029B8F
:103AD000059918604046FCF7E3FF049B06991860BF
:103AE0003868FCF7DDFF38609BF848309B0605D549
:103AF0002378202B0CD00798FFF74AFD2378022B60
:103B000006D151E000F0A6FC002839D001F074FA8B
:103B100001F09EFF6378002BF4D011B0BDE8F08F68
:103B2000FCF77AFC42A3D3E9002382468B46FCF7DC
:103B300043FF00283FF430AF3FA3D3E900235046B2
:103B40005946FCF70BFBFCF755FF064624E7FDF74B
:103B50005BF80B9B014607461868FDF7A9F80B9B1D
:103B600024F0080418601C7246E733A3D3E900234D
:103B700050465946FCF7F0FAFCF73CFF06460BE7C7
:103B8000DDF82CA00798514600F024FD60B99BF8A1
:103B90004830980708D59AF80830D90604D50B9B09
:103BA0001020596804F04EF96378002BB5D1013626
:103BB000019AB3B29A423FF661AF9BF8483099063A
:103BC00005D52378202B0FD00F98FFF7E1FC237841
:103BD000022BA2D001F03CFF6378002B9DD100F0B6
:103BE00039FC50B101F008FA01F032FF6378002B84
:103BF00093D100F02FFC0028F4D10B9C0F982146A4
:103C000000F0E8FC002888D19BF848309A0784D55A
:103C1000237ADB0681D510200B9B596811B0BDE8D3
:103C2000F04F04F00FB900BF8DEDB5A0F7C6A0BEF0
:103C30008DEDB5A0F7C6A03E182D4454FB211940C8
:103C4000ABAA2A3E0000C040FC0E0020B0100020AD
:103C50003046FCF7D9FF0E99FDF72AF8054605F026
:103C600059FE8046284605F0F5FE0C9B82461B68EF
:103C7000404603F1004319460A930D9BD3F8009088
:103C8000FDF716F8494605465046FDF711F801467E
:103C90002846FCF705FF0A9B054619465046FDF7E6
:103CA00007F8494682464046FDF702F8014650466D
:103CB000FCF7F4FE4FF00009804604E7004C7CE777
:103CC000FC0E0020074B1B78022B09D010B50446D0
:103CD00002F0B0F82046BDE81040002100F06CB9B9
:103CE000704700BFFC0E002008B5FFF727FA03203D
:103CF000FFF7B0FA01F0ACFE084B5B786BB9FEF74A
:103D0000B3F800F093FE4FF4C050FDF77BFA4FF488
:103D10008072034BC3F884215A6008BDFC0E00205A
:103D200000E100E02DE9F041424C2378022B0CD059
:103D300017460E46054602F07DF894F80180B8F16A
:103D4000000F05D00220BDE8F0810020BDE8F08121
:103D5000C7F3C00084F8058001F006F901F018F9F6
:103D600040B1042005F094FC01F072FE404601F0E1
:103D7000FBF8E7E7DFF8CC8098F84830980605D5DF
:103D80002378202B0BD02846FFF702FC2378022B48
:103D900005D109E000F05EFB70B301F02DF901F0F0
:103DA00057FE6378002BF5D00123234D02202B70A2
:103DB00005F05AFC01F04CFE6378002BC2D1237849
:103DC000002BF7D12B78012B28D00123637100231E
:103DD00018462B7001F0C8F801F03AFE04F0E2FA40
:103DE00000F0C6FA00F022FE02F04EFE60790030CC
:103DF00018BF0120BDE8F0812846314600F0EAFBFB
:103E00000028D1D198F848309907CDD5337ADA0611
:103E1000CAD57168102004F015F8C5E7FB0605D572
:103E2000064A074B07CA83E80700D0E7052005F0DC
:103E30002FFCCCE7FC0E0020120F0020200F0020EA
:103E4000140F0020B010002008B5144B1B78DB06BF
:103E500000D508BD102005F007FC03F017FFFDF7A3
:103E6000F3FE0F4A137813F02C0F08D0042B0CD05C
:103E7000032005F00DFCBDE8084004F0D3B812792A
:103E800012F0060FE5D0042BF2D1064B1B78002B65
:103E9000F1D1062005F0FCFBEDE700BF110F00207B
:103EA000FC0E00202C0F00202DE9F04F0C7883B081
:103EB000035D04442D2B65D02B2B68D04FF00008F8
:103EC000651C002634463746B6460CE00134E4B2A1
:103ED000082C11D80EB1013F7FB20EEB8E0E03EB12
:103EE0004E0E15F8013B303BDBB2092BEED9FE2B11
:103EF00007D136B90126F4E7002EF2D101377FB29F
:103F0000EFE7002C37D08246704601919146FCF7CE
:103F100077FE00218346FDF75FF808BB791C12DAB3
:103F20003E46224C58462146FCF7C2FEB31C5EB208
:103F3000721C8346F6DBFFB2C7F1FE0303F0FE03FB
:103F40001F4402377FB27B1C26D04FB1184C584615
:103F50002146FCF7ADFE013F7FB28346002FF6D12C
:103F6000B8F1000F0BD10124A5EB0A05019B013D1F
:103F7000C9F800B01D70204603B0BDE8F08F0BF10A
:103F8000004BF0E7A51C63784FF0010899E74FF06C
:103F900000086378A51C94E758460649FCF788FE9C
:103FA0008346B8F1000FDED0E9E700BF0AD7233C13
:103FB00000002041CDCCCC3D70B50E461849FCF731
:103FC00077FE05F067FCFDF775F880B2B0B1154DCE
:103FD0006B789BB9441EA4B28EB14FF6FF7608E011
:103FE000013C3220A4B2FFF70BFCB44206D06B7840
:103FF000ABB901F00BF8AB789B07F1D570BD4FF66C
:10400000FF7601E06B784BB9013C01F021FDA4B2D1
:104010003220FFF7F5FBB442F4D1EFE770BD70BD7D
:104020000000A041FC0E002060B138B54FF6FF75CE
:10403000441EA4B2013C0120A4B2FFF7E1FBAC4254
:10404000F8D138BD704700BF38B50D460146FCF7C2
:104050002FFE294604462846FCF72AFE0146204644
:10406000FCF71EFDBDE8384005F02CBDF8B5044650
:1040700087680021384625686668FCF7ADFF002890
:1040800039D139463846FCF713FE00210746304641
:10409000FCF7A2FF002835D131463046FCF708FE78
:1040A00001463846FCF7FCFC002106462846FCF792
:1040B00093FF48BB29462846FCF7FAFD01463046E7
:1040C000FCF7EEFC05F0FEFC064601464FF07E5084
:1040D000FCF7A2FE29460746FCF7EAFD39462060B8
:1040E0006068FCF7E5FD39466060A068FCF7E0FD1C
:1040F000A0603046F8BD002130460027FCF76CFF79
:104100000028C9D00021CCE70021D8E7F8B50C6819
:104110000D46064600212046FCF75EFF002830D100
:1041200021463068FCF778FE20F00044204616490E
:10413000FCF766FF28B36F6800213846FCF74CFF98
:1041400058B939467068FCF767FE20F000473946D9
:104150002046FCF755FF00B93C46AD6800212846D3
:10416000FCF73AFF58B92946B068FCF755FE20F035
:10417000004529462046FCF743FF00B92C4620465F
:10418000F8BD014CD7E700BFFFFF7F7F2DE9F04F5F
:10419000724B83B01B780093002B71D0704A5D1E68
:1041A00092F80090EDB2A945019266D034276D4C8B
:1041B00007FB0547396AF869FCF77AFD0146FCF709
:1041C0006FFCD7F818A08046514607F11406FCF79B
:1041D00017FF00B9D046C6F800804FF0230B002D22
:1041E0006CD0009B023B5FFA83FB67E0AB465B4B06
:1041F0001B7800934FF0340A0BF10102D6B2019BF9
:10420000242E08BF00260AFB0B4B93F800902EE0EB
:104210000AFB0647DBF814807D6940462946FCF717
:10422000E5FEA8B1DBF82010DBF81C00FCF740FD30
:104230000146FCF735FC4146FCF732FC804601465E
:104240002846FCF7F1FE18B14546B146C7F8148080
:104250000AFB064329469869FCF7BEFE731C00283A
:1042600018BFB146DEB2242EBB4608BF0026009B15
:104270009E42CDD1019B83F8009003B0BDE8F08F42
:10428000374B93F800900193B9F1230FF5D0354CDB
:10429000D4F83817D4F83C07FCF70AFD0146FCF7C0
:1042A000FFFBD4F8347705463946FCF7A9FE00B980
:1042B0003D464FF0220B2C4FC4F83057D9453FD024
:1042C00034265D4626E0DDB2284B06FB08481B7805
:1042D000AB422CD0D8F818B0D8F814005946FCF7E7
:1042E0007BFE98B9D8F82010D8F81C00FCF7E0FC49
:1042F0000146FCF7D5FB7969FCF7D2FB074601467E
:104300005846FCF791FEC0B1C8F814704D455746A9
:104310003FF46CAF6B1EA84606FB054A002DD2D1B8
:104320002325124B06FB08481B78AB42D2D104F080
:104330009BF9019B93F80090CCE7C8F814B0E5E72F
:104340000A4A12785A457FF455AF04F08DF9034BB1
:104350001B780093019B93F800B04BE78008002086
:1043600081080020300100204C0800208208002035
:104370000023012070B4094A09490A4E0A4D0B4C2A
:10438000136053609360D36013615361936108704D
:1043900033702B70237070BC704700BF84080020FE
:1043A0008308002082080020800800208108002067
:1043B00009490A4B0A781B7893420CD0531CDBB294
:1043C000242B08BF002310B405480B7004789442D6
:1043D00008BF037010BC70478208002080080020CE
:1043E000810800203420034A034B127800FB02307E
:1043F000704700BF8008002030010020054B064AAE
:104400001B7812789A421DBF3422044802FB030035
:104410000020704782080020800800203001002022
:10442000094B0A4A1B7812780133DBB2242B08BFF0
:1044300000239A4205D03421054A01FB0323586921
:1044400070470020704700BF8208002080080020CD
:1044500030010020044A054B10781B78C01AB0FACE
:1044600080F04009704700BF8208002083080020C8
:1044700038B5837CC56ADA0714D5164B587AFCF731
:10448000C3FB1549FCF714FC2946FCF711FC044654
:104490004FF07E512046FCF7BDFD08B94FF07E5429
:1044A000204638BD5B0704460BD40A4B187AFCF74C
:1044B000ABFB0949FCF7FCFB01462846FCF7F8FB7F
:1044C0000546A46A29462046FCF79AFD0028DFD15C
:1044D0002C46DDE7FC0E00200AD7233C2DE9F04FE7
:1044E000354B364D364A1B7885B0287A14780193BF
:1044F000FCF78AFB3349FCF7DBFB0390687AFCF797
:1045000083FB3049FCF7D4FB2F4F0290DFF8C0B09B
:104510004FF0340A4FF07E5923E041460298FCF7F1
:10452000C7FB054649462846FCF774FD00B94D46D1
:1045300029463846D6F82480FCF758FD00282FD0AD
:1045400039463846FCF7B4FB074641463846FCF787
:104550006BFD10BBB7610134E4B2242C08BF00240A
:104560002F46019B9C4221D00AFB04B6B37CD6F8AF
:104570002C80DA07D1D45B0704D440460399FCF7BA
:1045800097FB80460AFB04B39D6A41462846FCF728
:1045900037FD0028C6D14546C4E7C6F81880DAE7DB
:1045A00029462846FCF784FB0746CEE7074B9F6168
:1045B00005B0BDE8F08F00BF80080020FC0E002091
:1045C000820800200AD7233CFFFF7F7F8408002059
:1045D0003001002034222DE9F04F8A468346DFF86F
:1045E0001C93BB4D99F800608FB002FB0657002169
:1045F000384605F046F99AF80830DAF804209807AA
:104600003A63DFF8FC824CBFB24AB34ABB7405ABD5
:1046100007CA83E80700D8F80020DBF8001010462E
:104620000192FCF745FB05F0E9F94FF0340C014627
:104630000CFB06FC059805EB0C03081ADA6880EA07
:10464000E074A4EBE074944245F80C4038BF144683
:10465000DC6000930291FCF7D7FA019A1146FCF74F
:10466000DBFB00210890FCF7C1FC009B002840F018
:104670005181D8F80420DBF8041010460192FCF7B1
:1046800017FB05F0BBF9014606983423081A80EAA7
:10469000E07EAEEBE07E744538BF744603FB065304
:1046A000C3F804E0DC6000930391FCF7ADFA019AD3
:1046B0001146FCF7B1FB00210990FCF797FC009B29
:1046C000002840F02181D8F80830DBF8081018469F
:1046D0000093FCF7EDFA05F091F9024607984FF0C8
:1046E000340B101A80EAE071A1EBE0718C4238BF04
:1046F0000C460BFB065BCBF80810CBF80C40049281
:10470000FCF782FA009B1946FCF786FB00210A9011
:10471000FCF76CFC20B964B920460FB0BDE8F08FFF
:104720006E4ABBF8103092881343ABF81030002C5F
:10473000F2D04FF0340B08AC2046FFF797FC0BFB90
:10474000065B2146CBF820006548FFF7DFFC2146D9
:10475000CBF81C006348FFF7D9FC9BF81230CBF86C
:104760002800D90700F1DC80DAF800101A07CBF82E
:104770002C1007D5DBF820000093FCF799FA009B7A
:10478000CBF82C00584A99F800101278914200F0AA
:10479000D0809B0700F1CD80DFF83CA1089BDAF8C0
:1047A0000CB0184659460093FCF782FA009B594614
:1047B00000F1004B1846FCF771F9DAF81020099B5C
:1047C00011460B90184601920093FCF771FA0146CE
:1047D0005846FCF763F9019A009B11468346184638
:1047E000FCF75CF9DAF81430DDF828A00C9051469B
:1047F00018460093FCF75CFA01465846FCF74EF960
:10480000009B834619465046FCF748F937490D90FE
:104810005846FCF709FC002800F0B9803423002238
:1048200003FB06535A62342303FB06539A7C90071A
:1048300000F18680D107D3F82C8040F185802C4B85
:10484000587AFCF7E1F94146FCF732FA2949FCF7BE
:104850002FFA05464FF07E512846FCF7DBFB08B9DE
:104860004FF07E551C4E2946D6F818A0D7F8248064
:104870005046FCF7BBFB002800F0838051465046B1
:10488000FCF716FA824641465046FCF7CDFB00285D
:1048900074D1C7F818A0184ADFF868E0117802AFA1
:1048A0004B1CDBB2242B08BF0023B56189F8001034
:1048B000137094E807008EE8070097E8070086E881
:1048C0000700FFF763FC01200FB0BDE8F08F00BFC9
:1048D00030010020200F00208408002060AC000878
:1048E000C8100020BC10002082080020EFFF7F3F8E
:1048F000FC0E00200AD7233C8308002080080020FB
:10490000B010002090080020414A198A52880A43BA
:104910001A82D8E63E4A198A12880A431A82A8E601
:104920003C4A99F800101278CBF82C0091427FF4A1
:1049300030AF3423002203FB06535A615A6272E7F8
:1049400001200FB0BDE8F08F53070AD4324B187A1C
:10495000FCF75AF94146FCF7ABF93049FCF7A8F9E6
:104960008046342303FB06539D6A41462846FCF7E4
:1049700047FB00287FF46EAF45466BE7C7F8188009
:1049800089E729462846FCF793F982467BE72449C4
:104990005846FCF72BFB28B1342303FB0653214A6E
:1049A0005A6240E70BA8FFF761FB0BA91E48FFF70F
:1049B000ADFB594600904FF07E50FCF76FF84FF07A
:1049C0007C51FCF775F905F07DF88346009B59464C
:1049D0001846FCF76DF9D8F83810FCF769F9594614
:1049E00080464FF07E50FCF759F801464046FCF7F0
:1049F00013FA4FF0340A00210AFB065A8046FCF7EE
:104A000009FB08B94FF00008CAF824800BE700BF83
:104A100060AC000882080020FC0E00200AD7233C6E
:104A2000EFFF7FBFFFFF7F7FC8100020024A034BCC
:104A300007CA83E807007047200F00208408002081
:104A4000064A074B12781B789A422CBF03F12300C9
:104A500003F1FF30801AC0B2704700BF8008002009
:104A60008208002008B503F0FFFD044A044B1278C9
:104A70001A70BDE80840FFF789BB00BF820800201C
:104A80008108002010B50446007828B102F01AFC15
:104A900014F8010F0028F9D110BD00BF632870B5CC
:104AA000054620D91C48A0FB05304009303002F0F3
:104AB00009FC1A48A0FB0534E408E3B2A0FB03207C
:104AC000C00800EB8000A3EB40003030C0B202F021
:104AD000F9FB04EB8400A5EB40003030C0B2BDE828
:104AE000704002F0EFBB092805D8BDE870403030B7
:104AF000C0B202F0E7BB0A26B0FBF6F404F13000C6
:104B0000C0B202F0DFFB06FB1450BDE8704030304D
:104B1000C0B202F0D7BB00BF1F85EB51CDCCCCCCCF
:104B2000F0B50D4685B000210646FCF75FFA002877
:104B300052D1012D56D92C462F4F30463946FCF71D
:104B4000B7F8023CE4B2012C0646F6D805F00103A2
:104B500023B130462949FCF7ABF806464FF07C51AB
:104B60003046FBF79DFFFCF77FFA00283CD000227F
:104B7000234EA6FB0013DB0803EB8301A0EB4100EF
:104B8000541C04A930300A44E4B202F8100C224646
:104B90001846002BEDD1A54228D96A1E121BD2B2AD
:104BA00001320DEB0400302104F06BFE302204AB27
:104BB0006C1C2B4403F8102CE4B25CB10DEB040622
:104BC000A54215D016F8010D013C02F07BFB14F054
:104BD000FF04F5D105B0F0BD2D2002F073FB06F106
:104BE0000046A6E72B46B3E70446D4E7E5D1DDE768
:104BF0002E2002F067FBE5E70000C84200002041DC
:104C0000CDCCCCCC30B56E4B85B093F84830DB07BB
:104C100052D400210446FCF7E9F9002840F0A880AE
:104C200068492046FCF744F84FF07C51FBF738FF09
:104C3000FCF71AFA002800F0A1800021624D00E084
:104C40002146A5FB0023DB0803EB8302A0EB420017
:104C500004AA30304C1C0A4402F8100CE4B2184686
:104C6000002BEDD1022C16D830228B1C04A8DBB20D
:104C70000444032B04F8102C07D00344FF2903F845
:104C8000102C02D130238DF80230302304241D462D
:104C90008DF8033005E0032CF7D004AB234413F860
:104CA000115C013CE4B2022C7BD0284602F00AFBE6
:104CB000002CF2D105B030BD4449FBF7F9FF0021CB
:104CC0000446FCF793F900285ED141492046FBF7E2
:104CD000EFFF4FF07C51FBF7E3FEFCF7C5F900282E
:104CE00058D00021384D00E02146A5FB0023DB0809
:104CF00003EB8302A0EB420004AA30304C1C0A44B0
:104D000002F8100CE4B21846002BEDD1032C1ED88B
:104D100030228B1C04A8DBB20444042B04F8102CB2
:104D20000FD00331C9B20344042903F8102C08D072
:104D3000302304AA0A44022902F8103C01D18DF85C
:104D40000330302305241D468DF8043005E0042C83
:104D5000F7D004AB234413F8115C013CE4B2032CFC
:104D600026D0284602F0AEFA002CF2D105B030BDB4
:104D70002D2002F0A7FA04F1004451E730238DF80A
:104D800000308DF801307DE72D2002F09BFA04F110
:104D900000449AE7302302218DF800308DF801306D
:104DA000C6E72E2002F08EFA284602F08BFA74E74E
:104DB0002E2002F087FA284602F084FAC9E700BFE5
:104DC000B010002000007A44CDCCCCCC8B42213DE9
:104DD00000401C4670B54D4B84B093F84830DB075B
:104DE00035D400210446FCF701F900287BD14FF0AF
:104DF0007C512046FBF754FEFCF736F900286DD0B5
:104E00000022434DA5FB0013DB0803EB8301A0EB5D
:104E10004100541C04A930300A44E4B202F8100CDA
:104E200022461846002BEDD1002C57D004AB1A4473
:104E300012F8110C013CE4B26D466C4401E014F828
:104E4000010D02F03FFAAC42F9D104B070BD314916
:104E5000FBF72EFF00210446FCF7C8F8002848D1D4
:104E60002D492046FBF724FF4FF07C51FBF718FE3D
:104E7000FCF7FAF8A0B10021254CA4FB0032D208BF
:104E800002EB8203A0EB430004AD4B1C30302944FD
:104E9000DBB201F8100C19461046002AEDD173BBA5
:104EA00030238DF800303022022316468DF8012081
:104EB0005C1EE5B26D4400E05C1E304602F002FA72
:104EC000E3B2012B15F8016DF6D12E2002F0FAF9AC
:104ED000304604B0BDE8704002F0F4B9302001243F
:104EE0008DF80000A6E72D2002F0ECF904F1004453
:104EF0007DE72D2002F0E6F904F10044B0E7012B34
:104F0000D1D0294411F8116CD2E700BFB0100020B5
:104F1000CDCCCCCC8B42213D0000204110B50121ED
:104F200082B04FF400541020FCF7CEFC032248233B
:104F300002A921F8044D09488DF806208DF80730A4
:104F4000FCF75EFA0021064A064B92F948201980C8
:104F50008A42A8BF1C8002B010BD00BF00100140F3
:104F6000B01000202E0F002000230749074A91F9B6
:104F7000481013809942AABF4FF400514FF40053D8
:104F8000118000B113807047B01000202E0F002058
:104F900008B50548FCF7EAFB044B00F400501B88F9
:104FA000181A18BF012008BD001001402E0F002064
:104FB00038B50B48FCF7DAFB0A4B00F400501B88AD
:104FC00083420CD00021084B084D094A094C197046
:104FD0002B7807CA84E8070043F040032B7038BDE4
:104FE000001001402E0F0020120F0020110F002092
:104FF000200F0020140F002008B5FFF7FFF920B1A3
:10500000BDE80840022004F02FBB08BDF8B5AC4B4A
:105010001B78002B4FD1AB4CAB4D2B7803F0FF0529
:1050200093B3EE0600F1D680E80700F1F18015F0A9
:10503000E80F0AD02378990700F0F0806EB2002EB6
:10504000C0F26181E82004F019FBAB0719D515F017
:10505000680F13D12378402B00F06D81002B40F0B6
:105060003B8100232371FFF7C9F920B1A37813F026
:10507000400300F098810023A3702370022004F005
:10508000FDFA690700F1A980904B1B7803F0FF053A
:10509000002B67D18E4B1B7803F0FF05DBB923781B
:1050A00013F0FC0F03D1F8BD15F0C00F47D1BDE8D8
:1050B000F84003F0EFBA012603F0FF05814C2846C3
:1050C000013D267001F0C4F9B54240F222817E4DC7
:1050D00004F0E6FAA1E704F007FBA27A15F0010F4D
:1050E0000CBF13466423A80744BF0A33DBB2690729
:1050F00044BF0A3BDBB22F0744BF0133DBB2EE06ED
:1051000044BF03F1FF33DBB2C82B28BFC8230A2BEF
:1051100038BF0A239A4206D000212279A37242F0B6
:10512000080323712173A806237802D5102B00F001
:10513000BD8015F0C00FB3D0002B40F0DF80654F6D
:105140002A063E7A00F1F080680605D571064CBF4C
:1051500006F0BF0646F040063046FCF783FD237894
:105160003E729DE704F0B8FA217A15F0010F0CBFEA
:105170000B466423AE0744BF0A33DBB2680744BF63
:105180000A3BDBB22F0744BF0133DBB2EE0644BF5C
:1051900003F1FF33DBB2C82B28BFC8230A2B38BF6B
:1051A0000A23607A15F0200F14BF6422024615F01E
:1051B000400F18BF322215F0800F18BF19229942F4
:1051C00023D00021237262722173FFF787F9FFF762
:1051D00049FC5FE701236370F8BD237813F0D00F1B
:1051E00002D0E378002B51D0A3781F0652D413F0DD
:1051F000200236D0402203F07F0343F00103A37066
:105200002270042004F03AFA3EE78242D9D141E705
:1052100001F076FE012004F031FA08E713F0280FC0
:1052200022D133BB0122A2706A0600F19A802F07B7
:105230006EB201D510232370A8067FF500AF0620BB
:1052400001F01CF9A378190607D42278402A00F04F
:10525000B980802A01D04022227043F02003A3703D
:10526000EDE6A2702270CCE7A27812F0C00F00F039
:1052700089806AB26806164602D5990640F1AA806E
:105280002F07D9D513F0E00FD6D1D3E794F9023028
:10529000002B59DA00232371FFF76AF803F082F834
:1052A000FCF7E2FDFFF7C2FBA378A0E7E37A002B4F
:1052B0005CD10223E37215F0C00F7FF440AFF6E635
:1052C0002C0F0020FC0E0020110F0020F80E0020F3
:1052D000100F0020740E0020DA067FF5CFAEA27802
:1052E000D0077FF5CBAE102B7FF4BBAEE37A002B5B
:1052F0003FF4B7AE43F00803E372BFE613F0180FB4
:105300003FF4CEAE1BE72378012B36D080232370E9
:1053100098E6304601F0B2F8102004F0AFF92F4DB6
:105320002B78DF06FCD5D3E633064CBF06F07F06AC
:1053300046F0800608E7A37813F020027FF49EAEC3
:10534000DF0638D522708CE6FFF78CFB23799A07AD
:1053500003D5A27842F00102A27023F00603237164
:105360004FE741216AB21646A17089E7D9077FF558
:105370009BAE43F00403E3729DE7A37843F005037B
:10538000A370C3E703F070F9022223782271202B67
:105390007FF447AF6EB2002EFFF64EAFA37863F0F6
:1053A0007F03A37048E70822A370227003F072F90C
:1053B00002F0F8FD62E65E077FF560AE43F0080399
:1053C000A3705BE61A077FF546AF23F01C0343F09A
:1053D000020340E7A17841F04001C4E7110F00202B
:1053E0002DE9F04F83B0FFF709F8002800F0E082C4
:1053F000837CD0F830800193BA4E96F848309B07F2
:1054000000F1A7820025B84CA378002B00F09A8009
:105410006278002A40F09680DF071AD5217811F0D3
:10542000C00000F0928013F0040B00F07C81802912
:1054300000F0D282402900F06882180709D5DFF811
:10544000BCA29AF80910002900F0D581990740F113
:105450002782A64B1B7803F0FF0B002B40F08A80BD
:10546000A34F3B7803F0FF0B002B54D01BF0100F21
:1054700040F026811BF0010F40F075811BF0E80F12
:105480000CD02378980700F074814FFA8BF9B9F1AA
:10549000000FC0F29D81E82004F0F0F81BF0020F2D
:1054A00019D01BF0680F13D12378402B00F04882ED
:1054B000002B40F0028200232371FEF79FFF20B1F2
:1054C000A37813F0400300F07C820023A3702370C4
:1054D000022004F0D3F81BF0040F1CD0237813F043
:1054E000D00F00F00D81E378002B40F0098194F992
:1054F0000230002BC0F2FD81FFF7B4FA23799F0739
:1055000003D5A27842F00102A27023F00603042022
:10551000237104F0B3F8774B1B7803F0FF0B002BDB
:1055200036D1754B1B7803F0FF0B002B74D1237819
:1055300013F0FC0F3FF468AF03F0ACF8A378002B36
:105540007FF466AF03B0BDE8F08FE37A002B00F084
:10555000BA809F0740F1F780684B5B7A002B40F0E0
:10556000E9810023E372614B1B7803F0FF0B002BF2
:105570003FF476AF012758460BF1FF3B277000F050
:1055800067FFBB4540F28181594F04F089F868E715
:1055900004F0A2F81BF0010F18BF6423227A607A8E
:1055A00008BF13461BF0020F1CBF0A33DBB21BF00F
:1055B000040F1CBF0A3BDBB21BF0080F1CBF0133FA
:1055C000DBB21BF0100F1CBF03F1FF33DBB2C82BA3
:1055D00028BFC8230A2B38BF0A231BF0200F14BF93
:1055E000642101461BF0400F18BF32211BF0800FD1
:1055F00018BF19219A4201D1884292D00022237209
:1056000061722273FEF76AFFFFF72CFA3A4B1B78A0
:1056100003F0FF0B002B8AD004F066F81BF0010F9B
:1056200018BF6423A27A08BF13461BF0020F1CBFE9
:105630000A33DBB21BF0040F1CBF0A3BDBB21BF0CA
:10564000080F1CBF0133DBB21BF0100F1CBF03F1AE
:10565000FF33DBB2C82B28BFC8230A2B38BF0A236D
:105660009A4206D000212279A37242F008032371E6
:1056700021731BF0200F237802D0102B00F04F81F4
:105680001BF0C00F3FF454AF002B40F0D680DFF882
:105690006CA01BF0800F9AF8089040F0DA801BF0A5
:1056A000400F06D019F0400F14BF09F0BF0949F0B0
:1056B00040094846FCF7D6FA23788AF8089037E77D
:1056C00001236370A0E623791A077FF5C2AE019B20
:1056D000414603F0300002F02FFB237923F008034A
:1056E0002371B6E6B0100020FC0E00202C0F002025
:1056F000110F0020F80E0020100F0020740E002063
:10570000A378180600F1F58013F0200200F09280D3
:10571000402203F07F0343F00103A37022700420B2
:1057200003F0ACFFF7E62946584684F80BB002F0C8
:1057300003FB5846FCF796FAA37823F0020343F0E4
:105740000403A37085E613F00C0F3FF482AEBE4A4B
:10575000527A002A40F00D8119077FF502AF02202E
:1057600003F082FFFDE601F0CBFB012003F086FF92
:1057700084E613F0280F7CD0A27812F0C00F70D00E
:105780001BF0400F4FFA8BF902D0990640F1578178
:105790001BF0080F03D013F0E00F00F0A7801BF000
:1057A000200F3FF474AE062000F068FEA3781A06BE
:1057B00007D42178402900F0F380802901D04021CE
:1057C000217043F02003B9F1000FA370BFF663AE60
:1057D0002378012B00F0DD80802323705BE6019BA2
:1057E000414603F0300002F0A7FA01214FF081405A
:1057F000FEF7E2FBA3789AF8082003F002017AB1E1
:1058000000297FF426AE019B03F04000FCF72AFA42
:1058100001214FF07E50FEF7CFFBA37803F0020189
:1058200000297FF416AE43F010030220A37003F0AA
:105830001BFF0EE6A270227071E713F0180F3FF401
:1058400077AEDFF804A21BF0800F9AF808903FF4BF
:1058500026AF19F0800F14BF09F07F0949F08009C5
:105860001DE702F001FF022223782271202B00F0B5
:10587000DB80002B84D101221BF0400FA2704FFA75
:105880008BF92FD04121A17082E7384600F0F6FD58
:10589000102003F0F3FE6D4F3B78DB06FCD574E679
:1058A00096F848108A079AD521799AF8080041F0AD
:1058B000080222710028B6D0A5E7DA067FF508AE07
:1058C000A278D2077FF504AE102B7FF4F4ADE37A13
:1058D000002B3FF4F0AD43F008030220E37203F025
:1058E000CDFEF8E51BF0080F3FF459AF10232370ED
:1058F00055E700232371FEF73BFD02F053FDFCF753
:10590000B3FAFFF793F8A378FEE603F0BFFCA378A1
:1059100000287FF492AD03F0DF03A3708DE5E37AF6
:10592000DBB902231BF0C00FE3727FF4B0AE02F0CC
:10593000B1FE03E6294602F0FFF90123E37288E590
:10594000A37813F020027FF4C3ADD8065DD5227092
:10595000B1E5202003F0B6FE54E5D90702D543F0A7
:105960000403E3721BF0C00F7FF491AE02F092FECD
:10597000E4E50A2000F082FD96F8483098074BD500
:105980002279E37A42F00802190722717FF5E9AD26
:10599000E5E6A37843F00503A370802323707AE53E
:1059A0001F077FF50CAF23F01C0343F0020306E74B
:1059B000254B5F7A1A7AD3F80C8047EA02030193E9
:1059C0001AE50822A370227002F064FE02F0EAFADF
:1059D000022003F053FE7EE50B20019200F04EFD05
:1059E000019A0021104602F0A7F9019A1046FCF72F
:1059F00039F902F017FB6378002B7FF4A3ADFFF7B2
:105A000005FB6378002BFAD09CE559077FF560AD64
:105A100043F00803A3705BE5019B414603F03000AF
:105A200002F08AF9E37A97E64FFA8BF9B9F1000FA1
:105A3000FFF6B5AEA37863F07F03A370AFE6A1785D
:105A400041F04001A170A3E6740E0020110F002068
:105A5000F8B5AB4B1B78002B56D1AA4CAA4D2B782E
:105A600003F0FF0593B3EE0600F1DD80E80700F1D7
:105A7000F88015F0E80F0AD02378990700F0F78036
:105A80006EB2002EC0F26981E82003F0F7FDAB078B
:105A900019D515F0680F13D12378402B00F07581CC
:105AA000002B40F0438100232371FEF7A7FC20B1B7
:105AB000A37813F0400300F0A0810023A3702370AB
:105AC000022003F0DBFD690700F1B0808F4B1B78EB
:105AD00003F0FF05002B6ED18D4B1B7803F0FF0503
